{
  "contractName": "Card",
  "abi": [
    {
      "inputs": [],
      "stateMutability": "nonpayable",
      "type": "constructor"
    },
    {
      "anonymous": false,
      "inputs": [
        {
          "indexed": true,
          "internalType": "address",
          "name": "owner",
          "type": "address"
        },
        {
          "indexed": true,
          "internalType": "address",
          "name": "approved",
          "type": "address"
        },
        {
          "indexed": true,
          "internalType": "uint256",
          "name": "tokenId",
          "type": "uint256"
        }
      ],
      "name": "Approval",
      "type": "event"
    },
    {
      "anonymous": false,
      "inputs": [
        {
          "indexed": true,
          "internalType": "address",
          "name": "owner",
          "type": "address"
        },
        {
          "indexed": true,
          "internalType": "address",
          "name": "operator",
          "type": "address"
        },
        {
          "indexed": false,
          "internalType": "bool",
          "name": "approved",
          "type": "bool"
        }
      ],
      "name": "ApprovalForAll",
      "type": "event"
    },
    {
      "anonymous": false,
      "inputs": [
        {
          "indexed": true,
          "internalType": "address",
          "name": "previousOwner",
          "type": "address"
        },
        {
          "indexed": true,
          "internalType": "address",
          "name": "newOwner",
          "type": "address"
        }
      ],
      "name": "OwnershipTransferred",
      "type": "event"
    },
    {
      "anonymous": false,
      "inputs": [
        {
          "indexed": true,
          "internalType": "address",
          "name": "from",
          "type": "address"
        },
        {
          "indexed": true,
          "internalType": "address",
          "name": "to",
          "type": "address"
        },
        {
          "indexed": true,
          "internalType": "uint256",
          "name": "tokenId",
          "type": "uint256"
        }
      ],
      "name": "Transfer",
      "type": "event"
    },
    {
      "inputs": [
        {
          "internalType": "address",
          "name": "to",
          "type": "address"
        },
        {
          "internalType": "uint256",
          "name": "tokenId",
          "type": "uint256"
        }
      ],
      "name": "approve",
      "outputs": [],
      "stateMutability": "nonpayable",
      "type": "function"
    },
    {
      "inputs": [
        {
          "internalType": "address",
          "name": "owner",
          "type": "address"
        }
      ],
      "name": "balanceOf",
      "outputs": [
        {
          "internalType": "uint256",
          "name": "",
          "type": "uint256"
        }
      ],
      "stateMutability": "view",
      "type": "function",
      "constant": true
    },
    {
      "inputs": [
        {
          "internalType": "uint256",
          "name": "tokenId",
          "type": "uint256"
        }
      ],
      "name": "getApproved",
      "outputs": [
        {
          "internalType": "address",
          "name": "",
          "type": "address"
        }
      ],
      "stateMutability": "view",
      "type": "function",
      "constant": true
    },
    {
      "inputs": [
        {
          "internalType": "address",
          "name": "owner",
          "type": "address"
        },
        {
          "internalType": "address",
          "name": "operator",
          "type": "address"
        }
      ],
      "name": "isApprovedForAll",
      "outputs": [
        {
          "internalType": "bool",
          "name": "",
          "type": "bool"
        }
      ],
      "stateMutability": "view",
      "type": "function",
      "constant": true
    },
    {
      "inputs": [],
      "name": "name",
      "outputs": [
        {
          "internalType": "string",
          "name": "",
          "type": "string"
        }
      ],
      "stateMutability": "view",
      "type": "function",
      "constant": true
    },
    {
      "inputs": [],
      "name": "owner",
      "outputs": [
        {
          "internalType": "address",
          "name": "",
          "type": "address"
        }
      ],
      "stateMutability": "view",
      "type": "function",
      "constant": true
    },
    {
      "inputs": [
        {
          "internalType": "uint256",
          "name": "tokenId",
          "type": "uint256"
        }
      ],
      "name": "ownerOf",
      "outputs": [
        {
          "internalType": "address",
          "name": "",
          "type": "address"
        }
      ],
      "stateMutability": "view",
      "type": "function",
      "constant": true
    },
    {
      "inputs": [],
      "name": "randomResult",
      "outputs": [
        {
          "internalType": "uint256",
          "name": "",
          "type": "uint256"
        }
      ],
      "stateMutability": "view",
      "type": "function",
      "constant": true
    },
    {
      "inputs": [
        {
          "internalType": "bytes32",
          "name": "requestId",
          "type": "bytes32"
        },
        {
          "internalType": "uint256",
          "name": "randomness",
          "type": "uint256"
        }
      ],
      "name": "rawFulfillRandomness",
      "outputs": [],
      "stateMutability": "nonpayable",
      "type": "function"
    },
    {
      "inputs": [],
      "name": "renounceOwnership",
      "outputs": [],
      "stateMutability": "nonpayable",
      "type": "function"
    },
    {
      "inputs": [
        {
          "internalType": "bytes32",
          "name": "",
          "type": "bytes32"
        }
      ],
      "name": "requestIdToTokenId",
      "outputs": [
        {
          "internalType": "uint256",
          "name": "",
          "type": "uint256"
        }
      ],
      "stateMutability": "view",
      "type": "function",
      "constant": true
    },
    {
      "inputs": [
        {
          "internalType": "address",
          "name": "from",
          "type": "address"
        },
        {
          "internalType": "address",
          "name": "to",
          "type": "address"
        },
        {
          "internalType": "uint256",
          "name": "tokenId",
          "type": "uint256"
        }
      ],
      "name": "safeTransferFrom",
      "outputs": [],
      "stateMutability": "nonpayable",
      "type": "function"
    },
    {
      "inputs": [
        {
          "internalType": "address",
          "name": "from",
          "type": "address"
        },
        {
          "internalType": "address",
          "name": "to",
          "type": "address"
        },
        {
          "internalType": "uint256",
          "name": "tokenId",
          "type": "uint256"
        },
        {
          "internalType": "bytes",
          "name": "_data",
          "type": "bytes"
        }
      ],
      "name": "safeTransferFrom",
      "outputs": [],
      "stateMutability": "nonpayable",
      "type": "function"
    },
    {
      "inputs": [
        {
          "internalType": "address",
          "name": "operator",
          "type": "address"
        },
        {
          "internalType": "bool",
          "name": "approved",
          "type": "bool"
        }
      ],
      "name": "setApprovalForAll",
      "outputs": [],
      "stateMutability": "nonpayable",
      "type": "function"
    },
    {
      "inputs": [],
      "name": "symbol",
      "outputs": [
        {
          "internalType": "string",
          "name": "",
          "type": "string"
        }
      ],
      "stateMutability": "view",
      "type": "function",
      "constant": true
    },
    {
      "inputs": [
        {
          "internalType": "uint256",
          "name": "index",
          "type": "uint256"
        }
      ],
      "name": "tokenByIndex",
      "outputs": [
        {
          "internalType": "uint256",
          "name": "",
          "type": "uint256"
        }
      ],
      "stateMutability": "view",
      "type": "function",
      "constant": true
    },
    {
      "inputs": [
        {
          "internalType": "uint256",
          "name": "",
          "type": "uint256"
        }
      ],
      "name": "tokenIdToAbility",
      "outputs": [
        {
          "internalType": "uint256",
          "name": "",
          "type": "uint256"
        }
      ],
      "stateMutability": "view",
      "type": "function",
      "constant": true
    },
    {
      "inputs": [
        {
          "internalType": "address",
          "name": "owner",
          "type": "address"
        },
        {
          "internalType": "uint256",
          "name": "index",
          "type": "uint256"
        }
      ],
      "name": "tokenOfOwnerByIndex",
      "outputs": [
        {
          "internalType": "uint256",
          "name": "",
          "type": "uint256"
        }
      ],
      "stateMutability": "view",
      "type": "function",
      "constant": true
    },
    {
      "inputs": [],
      "name": "totalSupply",
      "outputs": [
        {
          "internalType": "uint256",
          "name": "",
          "type": "uint256"
        }
      ],
      "stateMutability": "view",
      "type": "function",
      "constant": true
    },
    {
      "inputs": [
        {
          "internalType": "address",
          "name": "from",
          "type": "address"
        },
        {
          "internalType": "address",
          "name": "to",
          "type": "address"
        },
        {
          "internalType": "uint256",
          "name": "tokenId",
          "type": "uint256"
        }
      ],
      "name": "transferFrom",
      "outputs": [],
      "stateMutability": "nonpayable",
      "type": "function"
    },
    {
      "inputs": [
        {
          "internalType": "address",
          "name": "newOwner",
          "type": "address"
        }
      ],
      "name": "transferOwnership",
      "outputs": [],
      "stateMutability": "nonpayable",
      "type": "function"
    },
    {
      "inputs": [
        {
          "internalType": "address",
          "name": "to",
          "type": "address"
        },
        {
          "internalType": "string",
          "name": "uri",
          "type": "string"
        }
      ],
      "name": "safeMint",
      "outputs": [
        {
          "internalType": "uint256",
          "name": "",
          "type": "uint256"
        }
      ],
      "stateMutability": "nonpayable",
      "type": "function"
    },
    {
      "inputs": [
        {
          "internalType": "uint256",
          "name": "tokenId",
          "type": "uint256"
        }
      ],
      "name": "tokenURI",
      "outputs": [
        {
          "internalType": "string",
          "name": "",
          "type": "string"
        }
      ],
      "stateMutability": "view",
      "type": "function",
      "constant": true
    },
    {
      "inputs": [
        {
          "internalType": "bytes4",
          "name": "interfaceId",
          "type": "bytes4"
        }
      ],
      "name": "supportsInterface",
      "outputs": [
        {
          "internalType": "bool",
          "name": "",
          "type": "bool"
        }
      ],
      "stateMutability": "view",
      "type": "function",
      "constant": true
    },
    {
      "inputs": [
        {
          "internalType": "string",
          "name": "tURI",
          "type": "string"
        }
      ],
      "name": "createCard",
      "outputs": [],
      "stateMutability": "nonpayable",
      "type": "function"
    },
    {
      "inputs": [],
      "name": "getRandomNumber",
      "outputs": [
        {
          "internalType": "bytes32",
          "name": "requestId",
          "type": "bytes32"
        }
      ],
      "stateMutability": "nonpayable",
      "type": "function"
    }
  ],
  "bytecode": "0x60c06040523480156200001157600080fd5b5073dd3782915140c8f3b190b5d67eac6dc5760c46e973a36085f69e2889c224210f603d836748e7dc00886040518060400160405280600481526020017f43617264000000000000000000000000000000000000000000000000000000008152506040518060400160405280600381526020017f43524400000000000000000000000000000000000000000000000000000000008152508160009080519060200190620000c092919062000273565b508060019080519060200190620000d992919062000273565b505050620000fc620000f0620001a560201b60201c565b620001ad60201b60201c565b8173ffffffffffffffffffffffffffffffffffffffff1660a08173ffffffffffffffffffffffffffffffffffffffff16815250508073ffffffffffffffffffffffffffffffffffffffff1660808173ffffffffffffffffffffffffffffffffffffffff168152505050507f6c3699283bda56ad74f6b855546325b68d482e983852a7a82979cc4807b641f460001b600d819055506703782dace9d90000600e8190555062000387565b600033905090565b6000600b60009054906101000a900473ffffffffffffffffffffffffffffffffffffffff16905081600b60006101000a81548173ffffffffffffffffffffffffffffffffffffffff021916908373ffffffffffffffffffffffffffffffffffffffff1602179055508173ffffffffffffffffffffffffffffffffffffffff168173ffffffffffffffffffffffffffffffffffffffff167f8be0079c531659141344cd1fd0a4f28419497f9722a3daafe3b4186f6b6457e060405160405180910390a35050565b828054620002819062000352565b90600052602060002090601f016020900481019282620002a55760008555620002f1565b82601f10620002c057805160ff1916838001178555620002f1565b82800160010185558215620002f1579182015b82811115620002f0578251825591602001919060010190620002d3565b5b50905062000300919062000304565b5090565b5b808211156200031f57600081600090555060010162000305565b5090565b7f4e487b7100000000000000000000000000000000000000000000000000000000600052602260045260246000fd5b600060028204905060018216806200036b57607f821691505b60208210810362000381576200038062000323565b5b50919050565b60805160a0516140b8620003bb60003960008181610bad0152611a0e015260008181610da101526119d201526140b86000f3fe608060405234801561001057600080fd5b506004361061018e5760003560e01c80636352211e116100de578063a22cb46511610097578063d204c45e11610071578063d204c45e146104a7578063dbdff2c1146104d7578063e985e9c5146104f5578063f2fde38b146105255761018e565b8063a22cb4651461043f578063b88d4fde1461045b578063c87b56dd146104775761018e565b80636352211e1461037d57806370a08231146103ad578063715018a6146103dd5780638da5cb5b146103e757806394985ddd1461040557806395d89b41146104215761018e565b806323b872dd1161014b57806342619f661161012557806342619f66146102f757806342842e0e1461031557806346a672bd146103315780634f6ccce71461034d5761018e565b806323b872dd1461027b5780632b44e7ac146102975780632f745c59146102c75761018e565b806301ffc9a71461019357806306fdde03146101c3578063081812fc146101e1578063095ea7b31461021157806318160ddd1461022d57806322881f881461024b575b600080fd5b6101ad60048036038101906101a89190612819565b610541565b6040516101ba9190612861565b60405180910390f35b6101cb610553565b6040516101d89190612915565b60405180910390f35b6101fb60048036038101906101f6919061296d565b6105e5565b60405161020891906129db565b60405180910390f35b61022b60048036038101906102269190612a22565b61066a565b005b610235610781565b6040516102429190612a71565b60405180910390f35b61026560048036038101906102609190612ac2565b61078e565b6040516102729190612a71565b60405180910390f35b61029560048036038101906102909190612aef565b6107a6565b005b6102b160048036038101906102ac919061296d565b610806565b6040516102be9190612a71565b60405180910390f35b6102e160048036038101906102dc9190612a22565b61081e565b6040516102ee9190612a71565b60405180910390f35b6102ff6108c3565b60405161030c9190612a71565b60405180910390f35b61032f600480360381019061032a9190612aef565b6108c9565b005b61034b60048036038101906103469190612c77565b6108e9565b005b6103676004803603810190610362919061296d565b610920565b6040516103749190612a71565b60405180910390f35b6103976004803603810190610392919061296d565b610991565b6040516103a491906129db565b60405180910390f35b6103c760048036038101906103c29190612cc0565b610a42565b6040516103d49190612a71565b60405180910390f35b6103e5610af9565b005b6103ef610b81565b6040516103fc91906129db565b60405180910390f35b61041f600480360381019061041a9190612ced565b610bab565b005b610429610c47565b6040516104369190612915565b60405180910390f35b61045960048036038101906104549190612d59565b610cd9565b005b61047560048036038101906104709190612e3a565b610cef565b005b610491600480360381019061048c919061296d565b610d51565b60405161049e9190612915565b60405180910390f35b6104c160048036038101906104bc9190612ebd565b610d63565b6040516104ce9190612a71565b60405180910390f35b6104df610d9a565b6040516104ec9190612f28565b60405180910390f35b61050f600480360381019061050a9190612f43565b610e8d565b60405161051c9190612861565b60405180910390f35b61053f600480360381019061053a9190612cc0565b610f21565b005b600061054c82611018565b9050919050565b60606000805461056290612fb2565b80601f016020809104026020016040519081016040528092919081815260200182805461058e90612fb2565b80156105db5780601f106105b0576101008083540402835291602001916105db565b820191906000526020600020905b8154815290600101906020018083116105be57829003601f168201915b5050505050905090565b60006105f082611092565b61062f576040517f08c379a000000000000000000000000000000000000000000000000000000000815260040161062690613055565b60405180910390fd5b6004600083815260200190815260200160002060009054906101000a900473ffffffffffffffffffffffffffffffffffffffff169050919050565b600061067582610991565b90508073ffffffffffffffffffffffffffffffffffffffff168373ffffffffffffffffffffffffffffffffffffffff16036106e5576040517f08c379a00000000000000000000000000000000000000000000000000000000081526004016106dc906130e7565b60405180910390fd5b8073ffffffffffffffffffffffffffffffffffffffff166107046110fe565b73ffffffffffffffffffffffffffffffffffffffff16148061073357506107328161072d6110fe565b610e8d565b5b610772576040517f08c379a000000000000000000000000000000000000000000000000000000000815260040161076990613179565b60405180910390fd5b61077c8383611106565b505050565b6000600880549050905090565b60106020528060005260406000206000915090505481565b6107b76107b16110fe565b826111bf565b6107f6576040517f08c379a00000000000000000000000000000000000000000000000000000000081526004016107ed9061320b565b60405180910390fd5b61080183838361129d565b505050565b60116020528060005260406000206000915090505481565b600061082983610a42565b821061086a576040517f08c379a00000000000000000000000000000000000000000000000000000000081526004016108619061329d565b60405180910390fd5b600660008473ffffffffffffffffffffffffffffffffffffffff1673ffffffffffffffffffffffffffffffffffffffff168152602001908152602001600020600083815260200190815260200160002054905092915050565b600f5481565b6108e483838360405180602001604052806000815250610cef565b505050565b60006108f53383610d63565b90506000610901610d9a565b9050816010600083815260200190815260200160002081905550505050565b600061092a610781565b821061096b576040517f08c379a00000000000000000000000000000000000000000000000000000000081526004016109629061332f565b60405180910390fd5b6008828154811061097f5761097e61334f565b5b90600052602060002001549050919050565b6000806002600084815260200190815260200160002060009054906101000a900473ffffffffffffffffffffffffffffffffffffffff169050600073ffffffffffffffffffffffffffffffffffffffff168173ffffffffffffffffffffffffffffffffffffffff1603610a39576040517f08c379a0000000000000000000000000000000000000000000000000000000008152600401610a30906133f0565b60405180910390fd5b80915050919050565b60008073ffffffffffffffffffffffffffffffffffffffff168273ffffffffffffffffffffffffffffffffffffffff1603610ab2576040517f08c379a0000000000000000000000000000000000000000000000000000000008152600401610aa990613482565b60405180910390fd5b600360008373ffffffffffffffffffffffffffffffffffffffff1673ffffffffffffffffffffffffffffffffffffffff168152602001908152602001600020549050919050565b610b016110fe565b73ffffffffffffffffffffffffffffffffffffffff16610b1f610b81565b73ffffffffffffffffffffffffffffffffffffffff1614610b75576040517f08c379a0000000000000000000000000000000000000000000000000000000008152600401610b6c906134ee565b60405180910390fd5b610b7f6000611503565b565b6000600b60009054906101000a900473ffffffffffffffffffffffffffffffffffffffff16905090565b7f000000000000000000000000000000000000000000000000000000000000000073ffffffffffffffffffffffffffffffffffffffff163373ffffffffffffffffffffffffffffffffffffffff1614610c39576040517f08c379a0000000000000000000000000000000000000000000000000000000008152600401610c309061355a565b60405180910390fd5b610c4382826115c9565b5050565b606060018054610c5690612fb2565b80601f0160208091040260200160405190810160405280929190818152602001828054610c8290612fb2565b8015610ccf5780601f10610ca457610100808354040283529160200191610ccf565b820191906000526020600020905b815481529060010190602001808311610cb257829003601f168201915b5050505050905090565b610ceb610ce46110fe565b83836115ff565b5050565b610d00610cfa6110fe565b836111bf565b610d3f576040517f08c379a0000000000000000000000000000000000000000000000000000000008152600401610d369061320b565b60405180910390fd5b610d4b8484848461176b565b50505050565b6060610d5c826117c7565b9050919050565b600080610d706012611918565b9050610d7c6012611926565b610d86848261193c565b610d90818461195a565b8091505092915050565b6000600e547f000000000000000000000000000000000000000000000000000000000000000073ffffffffffffffffffffffffffffffffffffffff166370a08231306040518263ffffffff1660e01b8152600401610df891906129db565b602060405180830381865afa158015610e15573d6000803e3d6000fd5b505050506040513d601f19601f82011682018060405250810190610e39919061358f565b1015610e7a576040517f08c379a0000000000000000000000000000000000000000000000000000000008152600401610e719061362e565b60405180910390fd5b610e88600d54600e546119ce565b905090565b6000600560008473ffffffffffffffffffffffffffffffffffffffff1673ffffffffffffffffffffffffffffffffffffffff16815260200190815260200160002060008373ffffffffffffffffffffffffffffffffffffffff1673ffffffffffffffffffffffffffffffffffffffff16815260200190815260200160002060009054906101000a900460ff16905092915050565b610f296110fe565b73ffffffffffffffffffffffffffffffffffffffff16610f47610b81565b73ffffffffffffffffffffffffffffffffffffffff1614610f9d576040517f08c379a0000000000000000000000000000000000000000000000000000000008152600401610f94906134ee565b60405180910390fd5b600073ffffffffffffffffffffffffffffffffffffffff168173ffffffffffffffffffffffffffffffffffffffff160361100c576040517f08c379a0000000000000000000000000000000000000000000000000000000008152600401611003906136c0565b60405180910390fd5b61101581611503565b50565b60007f780e9d63000000000000000000000000000000000000000000000000000000007bffffffffffffffffffffffffffffffffffffffffffffffffffffffff1916827bffffffffffffffffffffffffffffffffffffffffffffffffffffffff1916148061108b575061108a82611b21565b5b9050919050565b60008073ffffffffffffffffffffffffffffffffffffffff166002600084815260200190815260200160002060009054906101000a900473ffffffffffffffffffffffffffffffffffffffff1673ffffffffffffffffffffffffffffffffffffffff1614159050919050565b600033905090565b816004600083815260200190815260200160002060006101000a81548173ffffffffffffffffffffffffffffffffffffffff021916908373ffffffffffffffffffffffffffffffffffffffff160217905550808273ffffffffffffffffffffffffffffffffffffffff1661117983610991565b73ffffffffffffffffffffffffffffffffffffffff167f8c5be1e5ebec7d5bd14f71427d1e84f3dd0314c0f7b2291e5b200ac8c7c3b92560405160405180910390a45050565b60006111ca82611092565b611209576040517f08c379a000000000000000000000000000000000000000000000000000000000815260040161120090613752565b60405180910390fd5b600061121483610991565b90508073ffffffffffffffffffffffffffffffffffffffff168473ffffffffffffffffffffffffffffffffffffffff16148061125657506112558185610e8d565b5b8061129457508373ffffffffffffffffffffffffffffffffffffffff1661127c846105e5565b73ffffffffffffffffffffffffffffffffffffffff16145b91505092915050565b8273ffffffffffffffffffffffffffffffffffffffff166112bd82610991565b73ffffffffffffffffffffffffffffffffffffffff1614611313576040517f08c379a000000000000000000000000000000000000000000000000000000000815260040161130a906137e4565b60405180910390fd5b600073ffffffffffffffffffffffffffffffffffffffff168273ffffffffffffffffffffffffffffffffffffffff1603611382576040517f08c379a000000000000000000000000000000000000000000000000000000000815260040161137990613876565b60405180910390fd5b61138d838383611c03565b611398600082611106565b6001600360008573ffffffffffffffffffffffffffffffffffffffff1673ffffffffffffffffffffffffffffffffffffffff16815260200190815260200160002060008282546113e891906138c5565b925050819055506001600360008473ffffffffffffffffffffffffffffffffffffffff1673ffffffffffffffffffffffffffffffffffffffff168152602001908152602001600020600082825461143f91906138f9565b92505081905550816002600083815260200190815260200160002060006101000a81548173ffffffffffffffffffffffffffffffffffffffff021916908373ffffffffffffffffffffffffffffffffffffffff160217905550808273ffffffffffffffffffffffffffffffffffffffff168473ffffffffffffffffffffffffffffffffffffffff167fddf252ad1be2c89b69c2b068fc378daa952ba7f163c4a11628f55a4df523b3ef60405160405180910390a46114fe838383611c13565b505050565b6000600b60009054906101000a900473ffffffffffffffffffffffffffffffffffffffff16905081600b60006101000a81548173ffffffffffffffffffffffffffffffffffffffff021916908373ffffffffffffffffffffffffffffffffffffffff1602179055508173ffffffffffffffffffffffffffffffffffffffff168173ffffffffffffffffffffffffffffffffffffffff167f8be0079c531659141344cd1fd0a4f28419497f9722a3daafe3b4186f6b6457e060405160405180910390a35050565b8060116000601060008681526020019081526020016000205481526020019081526020016000208190555080600f819055505050565b8173ffffffffffffffffffffffffffffffffffffffff168373ffffffffffffffffffffffffffffffffffffffff160361166d576040517f08c379a00000000000000000000000000000000000000000000000000000000081526004016116649061399b565b60405180910390fd5b80600560008573ffffffffffffffffffffffffffffffffffffffff1673ffffffffffffffffffffffffffffffffffffffff16815260200190815260200160002060008473ffffffffffffffffffffffffffffffffffffffff1673ffffffffffffffffffffffffffffffffffffffff16815260200190815260200160002060006101000a81548160ff0219169083151502179055508173ffffffffffffffffffffffffffffffffffffffff168373ffffffffffffffffffffffffffffffffffffffff167f17307eab39ab6107e8899845ad3d59bd9653f200f220920489ca2b5937696c318360405161175e9190612861565b60405180910390a3505050565b61177684848461129d565b61178284848484611c18565b6117c1576040517f08c379a00000000000000000000000000000000000000000000000000000000081526004016117b890613a2d565b60405180910390fd5b50505050565b60606117d282611092565b611811576040517f08c379a000000000000000000000000000000000000000000000000000000000815260040161180890613abf565b60405180910390fd5b6000600a6000848152602001908152602001600020805461183190612fb2565b80601f016020809104026020016040519081016040528092919081815260200182805461185d90612fb2565b80156118aa5780601f1061187f576101008083540402835291602001916118aa565b820191906000526020600020905b81548152906001019060200180831161188d57829003601f168201915b5050505050905060006118bb611d9f565b905060008151036118d0578192505050611913565b6000825111156119055780826040516020016118ed929190613b1b565b60405160208183030381529060405292505050611913565b61190e84611db6565b925050505b919050565b600081600001549050919050565b6001816000016000828254019250508190555050565b611956828260405180602001604052806000815250611e5d565b5050565b61196382611092565b6119a2576040517f08c379a000000000000000000000000000000000000000000000000000000000815260040161199990613bb1565b60405180910390fd5b80600a600084815260200190815260200160002090805190602001906119c992919061270a565b505050565b60007f000000000000000000000000000000000000000000000000000000000000000073ffffffffffffffffffffffffffffffffffffffff16634000aea07f000000000000000000000000000000000000000000000000000000000000000084866000604051602001611a42929190613bd1565b6040516020818303038152906040526040518463ffffffff1660e01b8152600401611a6f93929190613c4f565b6020604051808303816000875af1158015611a8e573d6000803e3d6000fd5b505050506040513d601f19601f82011682018060405250810190611ab29190613ca2565b506000611ad584600030600c600089815260200190815260200160002054611eb8565b90506001600c600086815260200190815260200160002054611af791906138f9565b600c600086815260200190815260200160002081905550611b188482611ef4565b91505092915050565b60007f80ac58cd000000000000000000000000000000000000000000000000000000007bffffffffffffffffffffffffffffffffffffffffffffffffffffffff1916827bffffffffffffffffffffffffffffffffffffffffffffffffffffffff19161480611bec57507f5b5e139f000000000000000000000000000000000000000000000000000000007bffffffffffffffffffffffffffffffffffffffffffffffffffffffff1916827bffffffffffffffffffffffffffffffffffffffffffffffffffffffff1916145b80611bfc5750611bfb82611f27565b5b9050919050565b611c0e838383611f91565b505050565b505050565b6000611c398473ffffffffffffffffffffffffffffffffffffffff166120a3565b15611d92578373ffffffffffffffffffffffffffffffffffffffff1663150b7a02611c626110fe565b8786866040518563ffffffff1660e01b8152600401611c849493929190613ccf565b6020604051808303816000875af1925050508015611cc057506040513d601f19601f82011682018060405250810190611cbd9190613d30565b60015b611d42573d8060008114611cf0576040519150601f19603f3d011682016040523d82523d6000602084013e611cf5565b606091505b506000815103611d3a576040517f08c379a0000000000000000000000000000000000000000000000000000000008152600401611d3190613a2d565b60405180910390fd5b805181602001fd5b63150b7a0260e01b7bffffffffffffffffffffffffffffffffffffffffffffffffffffffff1916817bffffffffffffffffffffffffffffffffffffffffffffffffffffffff191614915050611d97565b600190505b949350505050565b606060405180602001604052806000815250905090565b6060611dc182611092565b611e00576040517f08c379a0000000000000000000000000000000000000000000000000000000008152600401611df790613dcf565b60405180910390fd5b6000611e0a611d9f565b90506000815111611e2a5760405180602001604052806000815250611e55565b80611e34846120c6565b604051602001611e45929190613b1b565b6040516020818303038152906040525b915050919050565b611e678383612226565b611e746000848484611c18565b611eb3576040517f08c379a0000000000000000000000000000000000000000000000000000000008152600401611eaa90613a2d565b60405180910390fd5b505050565b600084848484604051602001611ed19493929190613def565b6040516020818303038152906040528051906020012060001c9050949350505050565b60008282604051602001611f09929190613e76565b60405160208183030381529060405280519060200120905092915050565b60007f01ffc9a7000000000000000000000000000000000000000000000000000000007bffffffffffffffffffffffffffffffffffffffffffffffffffffffff1916827bffffffffffffffffffffffffffffffffffffffffffffffffffffffff1916149050919050565b611f9c8383836123ff565b600073ffffffffffffffffffffffffffffffffffffffff168373ffffffffffffffffffffffffffffffffffffffff1603611fde57611fd981612404565b61201d565b8173ffffffffffffffffffffffffffffffffffffffff168373ffffffffffffffffffffffffffffffffffffffff161461201c5761201b838261244d565b5b5b600073ffffffffffffffffffffffffffffffffffffffff168273ffffffffffffffffffffffffffffffffffffffff160361205f5761205a816125ba565b61209e565b8273ffffffffffffffffffffffffffffffffffffffff168273ffffffffffffffffffffffffffffffffffffffff161461209d5761209c828261268b565b5b5b505050565b6000808273ffffffffffffffffffffffffffffffffffffffff163b119050919050565b60606000820361210d576040518060400160405280600181526020017f30000000000000000000000000000000000000000000000000000000000000008152509050612221565b600082905060005b6000821461213f57808061212890613ea2565b915050600a826121389190613f19565b9150612115565b60008167ffffffffffffffff81111561215b5761215a612b4c565b5b6040519080825280601f01601f19166020018201604052801561218d5781602001600182028036833780820191505090505b5090505b6000851461221a576001826121a691906138c5565b9150600a856121b59190613f4a565b60306121c191906138f9565b60f81b8183815181106121d7576121d661334f565b5b60200101907effffffffffffffffffffffffffffffffffffffffffffffffffffffffffffff1916908160001a905350600a856122139190613f19565b9450612191565b8093505050505b919050565b600073ffffffffffffffffffffffffffffffffffffffff168273ffffffffffffffffffffffffffffffffffffffff1603612295576040517f08c379a000000000000000000000000000000000000000000000000000000000815260040161228c90613fc7565b60405180910390fd5b61229e81611092565b156122de576040517f08c379a00000000000000000000000000000000000000000000000000000000081526004016122d590614033565b60405180910390fd5b6122ea60008383611c03565b6001600360008473ffffffffffffffffffffffffffffffffffffffff1673ffffffffffffffffffffffffffffffffffffffff168152602001908152602001600020600082825461233a91906138f9565b92505081905550816002600083815260200190815260200160002060006101000a81548173ffffffffffffffffffffffffffffffffffffffff021916908373ffffffffffffffffffffffffffffffffffffffff160217905550808273ffffffffffffffffffffffffffffffffffffffff16600073ffffffffffffffffffffffffffffffffffffffff167fddf252ad1be2c89b69c2b068fc378daa952ba7f163c4a11628f55a4df523b3ef60405160405180910390a46123fb60008383611c13565b5050565b505050565b6008805490506009600083815260200190815260200160002081905550600881908060018154018082558091505060019003906000526020600020016000909190919091505550565b6000600161245a84610a42565b61246491906138c5565b9050600060076000848152602001908152602001600020549050818114612549576000600660008673ffffffffffffffffffffffffffffffffffffffff1673ffffffffffffffffffffffffffffffffffffffff168152602001908152602001600020600084815260200190815260200160002054905080600660008773ffffffffffffffffffffffffffffffffffffffff1673ffffffffffffffffffffffffffffffffffffffff168152602001908152602001600020600084815260200190815260200160002081905550816007600083815260200190815260200160002081905550505b6007600084815260200190815260200160002060009055600660008573ffffffffffffffffffffffffffffffffffffffff1673ffffffffffffffffffffffffffffffffffffffff16815260200190815260200160002060008381526020019081526020016000206000905550505050565b600060016008805490506125ce91906138c5565b90506000600960008481526020019081526020016000205490506000600883815481106125fe576125fd61334f565b5b9060005260206000200154905080600883815481106126205761261f61334f565b5b90600052602060002001819055508160096000838152602001908152602001600020819055506009600085815260200190815260200160002060009055600880548061266f5761266e614053565b5b6001900381819060005260206000200160009055905550505050565b600061269683610a42565b905081600660008573ffffffffffffffffffffffffffffffffffffffff1673ffffffffffffffffffffffffffffffffffffffff168152602001908152602001600020600083815260200190815260200160002081905550806007600084815260200190815260200160002081905550505050565b82805461271690612fb2565b90600052602060002090601f016020900481019282612738576000855561277f565b82601f1061275157805160ff191683800117855561277f565b8280016001018555821561277f579182015b8281111561277e578251825591602001919060010190612763565b5b50905061278c9190612790565b5090565b5b808211156127a9576000816000905550600101612791565b5090565b6000604051905090565b600080fd5b600080fd5b60007fffffffff0000000000000000000000000000000000000000000000000000000082169050919050565b6127f6816127c1565b811461280157600080fd5b50565b600081359050612813816127ed565b92915050565b60006020828403121561282f5761282e6127b7565b5b600061283d84828501612804565b91505092915050565b60008115159050919050565b61285b81612846565b82525050565b60006020820190506128766000830184612852565b92915050565b600081519050919050565b600082825260208201905092915050565b60005b838110156128b657808201518184015260208101905061289b565b838111156128c5576000848401525b50505050565b6000601f19601f8301169050919050565b60006128e78261287c565b6128f18185612887565b9350612901818560208601612898565b61290a816128cb565b840191505092915050565b6000602082019050818103600083015261292f81846128dc565b905092915050565b6000819050919050565b61294a81612937565b811461295557600080fd5b50565b60008135905061296781612941565b92915050565b600060208284031215612983576129826127b7565b5b600061299184828501612958565b91505092915050565b600073ffffffffffffffffffffffffffffffffffffffff82169050919050565b60006129c58261299a565b9050919050565b6129d5816129ba565b82525050565b60006020820190506129f060008301846129cc565b92915050565b6129ff816129ba565b8114612a0a57600080fd5b50565b600081359050612a1c816129f6565b92915050565b60008060408385031215612a3957612a386127b7565b5b6000612a4785828601612a0d565b9250506020612a5885828601612958565b9150509250929050565b612a6b81612937565b82525050565b6000602082019050612a866000830184612a62565b92915050565b6000819050919050565b612a9f81612a8c565b8114612aaa57600080fd5b50565b600081359050612abc81612a96565b92915050565b600060208284031215612ad857612ad76127b7565b5b6000612ae684828501612aad565b91505092915050565b600080600060608486031215612b0857612b076127b7565b5b6000612b1686828701612a0d565b9350506020612b2786828701612a0d565b9250506040612b3886828701612958565b9150509250925092565b600080fd5b600080fd5b7f4e487b7100000000000000000000000000000000000000000000000000000000600052604160045260246000fd5b612b84826128cb565b810181811067ffffffffffffffff82111715612ba357612ba2612b4c565b5b80604052505050565b6000612bb66127ad565b9050612bc28282612b7b565b919050565b600067ffffffffffffffff821115612be257612be1612b4c565b5b612beb826128cb565b9050602081019050919050565b82818337600083830152505050565b6000612c1a612c1584612bc7565b612bac565b905082815260208101848484011115612c3657612c35612b47565b5b612c41848285612bf8565b509392505050565b600082601f830112612c5e57612c5d612b42565b5b8135612c6e848260208601612c07565b91505092915050565b600060208284031215612c8d57612c8c6127b7565b5b600082013567ffffffffffffffff811115612cab57612caa6127bc565b5b612cb784828501612c49565b91505092915050565b600060208284031215612cd657612cd56127b7565b5b6000612ce484828501612a0d565b91505092915050565b60008060408385031215612d0457612d036127b7565b5b6000612d1285828601612aad565b9250506020612d2385828601612958565b9150509250929050565b612d3681612846565b8114612d4157600080fd5b50565b600081359050612d5381612d2d565b92915050565b60008060408385031215612d7057612d6f6127b7565b5b6000612d7e85828601612a0d565b9250506020612d8f85828601612d44565b9150509250929050565b600067ffffffffffffffff821115612db457612db3612b4c565b5b612dbd826128cb565b9050602081019050919050565b6000612ddd612dd884612d99565b612bac565b905082815260208101848484011115612df957612df8612b47565b5b612e04848285612bf8565b509392505050565b600082601f830112612e2157612e20612b42565b5b8135612e31848260208601612dca565b91505092915050565b60008060008060808587031215612e5457612e536127b7565b5b6000612e6287828801612a0d565b9450506020612e7387828801612a0d565b9350506040612e8487828801612958565b925050606085013567ffffffffffffffff811115612ea557612ea46127bc565b5b612eb187828801612e0c565b91505092959194509250565b60008060408385031215612ed457612ed36127b7565b5b6000612ee285828601612a0d565b925050602083013567ffffffffffffffff811115612f0357612f026127bc565b5b612f0f85828601612c49565b9150509250929050565b612f2281612a8c565b82525050565b6000602082019050612f3d6000830184612f19565b92915050565b60008060408385031215612f5a57612f596127b7565b5b6000612f6885828601612a0d565b9250506020612f7985828601612a0d565b9150509250929050565b7f4e487b7100000000000000000000000000000000000000000000000000000000600052602260045260246000fd5b60006002820490506001821680612fca57607f821691505b602082108103612fdd57612fdc612f83565b5b50919050565b7f4552433732313a20617070726f76656420717565727920666f72206e6f6e657860008201527f697374656e7420746f6b656e0000000000000000000000000000000000000000602082015250565b600061303f602c83612887565b915061304a82612fe3565b604082019050919050565b6000602082019050818103600083015261306e81613032565b9050919050565b7f4552433732313a20617070726f76616c20746f2063757272656e74206f776e6560008201527f7200000000000000000000000000000000000000000000000000000000000000602082015250565b60006130d1602183612887565b91506130dc82613075565b604082019050919050565b60006020820190508181036000830152613100816130c4565b9050919050565b7f4552433732313a20617070726f76652063616c6c6572206973206e6f74206f7760008201527f6e6572206e6f7220617070726f76656420666f7220616c6c0000000000000000602082015250565b6000613163603883612887565b915061316e82613107565b604082019050919050565b6000602082019050818103600083015261319281613156565b9050919050565b7f4552433732313a207472616e736665722063616c6c6572206973206e6f74206f60008201527f776e6572206e6f7220617070726f766564000000000000000000000000000000602082015250565b60006131f5603183612887565b915061320082613199565b604082019050919050565b60006020820190508181036000830152613224816131e8565b9050919050565b7f455243373231456e756d657261626c653a206f776e657220696e646578206f7560008201527f74206f6620626f756e6473000000000000000000000000000000000000000000602082015250565b6000613287602b83612887565b91506132928261322b565b604082019050919050565b600060208201905081810360008301526132b68161327a565b9050919050565b7f455243373231456e756d657261626c653a20676c6f62616c20696e646578206f60008201527f7574206f6620626f756e64730000000000000000000000000000000000000000602082015250565b6000613319602c83612887565b9150613324826132bd565b604082019050919050565b600060208201905081810360008301526133488161330c565b9050919050565b7f4e487b7100000000000000000000000000000000000000000000000000000000600052603260045260246000fd5b7f4552433732313a206f776e657220717565727920666f72206e6f6e657869737460008201527f656e7420746f6b656e0000000000000000000000000000000000000000000000602082015250565b60006133da602983612887565b91506133e58261337e565b604082019050919050565b60006020820190508181036000830152613409816133cd565b9050919050565b7f4552433732313a2062616c616e636520717565727920666f7220746865207a6560008201527f726f206164647265737300000000000000000000000000000000000000000000602082015250565b600061346c602a83612887565b915061347782613410565b604082019050919050565b6000602082019050818103600083015261349b8161345f565b9050919050565b7f4f776e61626c653a2063616c6c6572206973206e6f7420746865206f776e6572600082015250565b60006134d8602083612887565b91506134e3826134a2565b602082019050919050565b60006020820190508181036000830152613507816134cb565b9050919050565b7f4f6e6c7920565246436f6f7264696e61746f722063616e2066756c66696c6c00600082015250565b6000613544601f83612887565b915061354f8261350e565b602082019050919050565b6000602082019050818103600083015261357381613537565b9050919050565b60008151905061358981612941565b92915050565b6000602082840312156135a5576135a46127b7565b5b60006135b38482850161357a565b91505092915050565b7f4e6f7420656e6f756768204c494e4b202d2066696c6c20636f6e74726163742060008201527f7769746820666175636574000000000000000000000000000000000000000000602082015250565b6000613618602b83612887565b9150613623826135bc565b604082019050919050565b600060208201905081810360008301526136478161360b565b9050919050565b7f4f776e61626c653a206e6577206f776e657220697320746865207a65726f206160008201527f6464726573730000000000000000000000000000000000000000000000000000602082015250565b60006136aa602683612887565b91506136b58261364e565b604082019050919050565b600060208201905081810360008301526136d98161369d565b9050919050565b7f4552433732313a206f70657261746f7220717565727920666f72206e6f6e657860008201527f697374656e7420746f6b656e0000000000000000000000000000000000000000602082015250565b600061373c602c83612887565b9150613747826136e0565b604082019050919050565b6000602082019050818103600083015261376b8161372f565b9050919050565b7f4552433732313a207472616e736665722066726f6d20696e636f72726563742060008201527f6f776e6572000000000000000000000000000000000000000000000000000000602082015250565b60006137ce602583612887565b91506137d982613772565b604082019050919050565b600060208201905081810360008301526137fd816137c1565b9050919050565b7f4552433732313a207472616e7366657220746f20746865207a65726f2061646460008201527f7265737300000000000000000000000000000000000000000000000000000000602082015250565b6000613860602483612887565b915061386b82613804565b604082019050919050565b6000602082019050818103600083015261388f81613853565b9050919050565b7f4e487b7100000000000000000000000000000000000000000000000000000000600052601160045260246000fd5b60006138d082612937565b91506138db83612937565b9250828210156138ee576138ed613896565b5b828203905092915050565b600061390482612937565b915061390f83612937565b9250827fffffffffffffffffffffffffffffffffffffffffffffffffffffffffffffffff0382111561394457613943613896565b5b828201905092915050565b7f4552433732313a20617070726f766520746f2063616c6c657200000000000000600082015250565b6000613985601983612887565b91506139908261394f565b602082019050919050565b600060208201905081810360008301526139b481613978565b9050919050565b7f4552433732313a207472616e7366657220746f206e6f6e20455243373231526560008201527f63656976657220696d706c656d656e7465720000000000000000000000000000602082015250565b6000613a17603283612887565b9150613a22826139bb565b604082019050919050565b60006020820190508181036000830152613a4681613a0a565b9050919050565b7f45524337323155524953746f726167653a2055524920717565727920666f722060008201527f6e6f6e6578697374656e7420746f6b656e000000000000000000000000000000602082015250565b6000613aa9603183612887565b9150613ab482613a4d565b604082019050919050565b60006020820190508181036000830152613ad881613a9c565b9050919050565b600081905092915050565b6000613af58261287c565b613aff8185613adf565b9350613b0f818560208601612898565b80840191505092915050565b6000613b278285613aea565b9150613b338284613aea565b91508190509392505050565b7f45524337323155524953746f726167653a2055524920736574206f66206e6f6e60008201527f6578697374656e7420746f6b656e000000000000000000000000000000000000602082015250565b6000613b9b602e83612887565b9150613ba682613b3f565b604082019050919050565b60006020820190508181036000830152613bca81613b8e565b9050919050565b6000604082019050613be66000830185612f19565b613bf36020830184612a62565b9392505050565b600081519050919050565b600082825260208201905092915050565b6000613c2182613bfa565b613c2b8185613c05565b9350613c3b818560208601612898565b613c44816128cb565b840191505092915050565b6000606082019050613c6460008301866129cc565b613c716020830185612a62565b8181036040830152613c838184613c16565b9050949350505050565b600081519050613c9c81612d2d565b92915050565b600060208284031215613cb857613cb76127b7565b5b6000613cc684828501613c8d565b91505092915050565b6000608082019050613ce460008301876129cc565b613cf160208301866129cc565b613cfe6040830185612a62565b8181036060830152613d108184613c16565b905095945050505050565b600081519050613d2a816127ed565b92915050565b600060208284031215613d4657613d456127b7565b5b6000613d5484828501613d1b565b91505092915050565b7f4552433732314d657461646174613a2055524920717565727920666f72206e6f60008201527f6e6578697374656e7420746f6b656e0000000000000000000000000000000000602082015250565b6000613db9602f83612887565b9150613dc482613d5d565b604082019050919050565b60006020820190508181036000830152613de881613dac565b9050919050565b6000608082019050613e046000830187612f19565b613e116020830186612a62565b613e1e60408301856129cc565b613e2b6060830184612a62565b95945050505050565b6000819050919050565b613e4f613e4a82612a8c565b613e34565b82525050565b6000819050919050565b613e70613e6b82612937565b613e55565b82525050565b6000613e828285613e3e565b602082019150613e928284613e5f565b6020820191508190509392505050565b6000613ead82612937565b91507fffffffffffffffffffffffffffffffffffffffffffffffffffffffffffffffff8203613edf57613ede613896565b5b600182019050919050565b7f4e487b7100000000000000000000000000000000000000000000000000000000600052601260045260246000fd5b6000613f2482612937565b9150613f2f83612937565b925082613f3f57613f3e613eea565b5b828204905092915050565b6000613f5582612937565b9150613f6083612937565b925082613f7057613f6f613eea565b5b828206905092915050565b7f4552433732313a206d696e7420746f20746865207a65726f2061646472657373600082015250565b6000613fb1602083612887565b9150613fbc82613f7b565b602082019050919050565b60006020820190508181036000830152613fe081613fa4565b9050919050565b7f4552433732313a20746f6b656e20616c7265616479206d696e74656400000000600082015250565b600061401d601c83612887565b915061402882613fe7565b602082019050919050565b6000602082019050818103600083015261404c81614010565b9050919050565b7f4e487b7100000000000000000000000000000000000000000000000000000000600052603160045260246000fdfea2646970667358221220128de3c1fff1055ec0e6bcf112db8687096eff78eb70ee053af28e88e57c2f1864736f6c634300080d0033",
  "immutableReferences": {
    "73": [
      {
        "length": 32,
        "start": 3489
      },
      {
        "length": 32,
        "start": 6610
      }
    ],
    "75": [
      {
        "length": 32,
        "start": 2989
      },
      {
        "length": 32,
        "start": 6670
      }
    ]
  },
  "source": "// SPDX-License-Identifier: MIT\r\npragma solidity ^0.8.4;\r\n\r\nimport \"@openzeppelin/contracts/token/ERC721/ERC721.sol\";\r\nimport \"@openzeppelin/contracts/token/ERC721/extensions/ERC721Enumerable.sol\";\r\nimport \"@openzeppelin/contracts/token/ERC721/extensions/ERC721URIStorage.sol\";\r\nimport \"@openzeppelin/contracts/access/Ownable.sol\";\r\nimport \"@openzeppelin/contracts/utils/Counters.sol\";\r\nimport \"@chainlink/contracts/src/v0.8/VRFConsumerBase.sol\";\r\n\r\ncontract Card is ERC721, ERC721Enumerable, ERC721URIStorage, Ownable, VRFConsumerBase {\r\n    using Counters for Counters.Counter;\r\n    bytes32 internal keyHash;\r\n    uint256 internal fee;\r\n    uint256 public randomResult;\r\n    mapping(bytes32 => uint256) public requestIdToTokenId;\r\n    mapping(uint256 => uint256) public tokenIdToAbility;\r\n    Counters.Counter private _tokenIdCounter;\r\n\r\n    constructor() ERC721(\"Card\", \"CRD\") \r\n    VRFConsumerBase(\r\n        0xdD3782915140c8f3b190B5D67eAc6dc5760C46E9, // VRF Coordinator\r\n        0xa36085F69e2889c224210F603D836748e7dC0088  // LINK Token\r\n    )\r\n    {\r\n        keyHash = 0x6c3699283bda56ad74f6b855546325b68d482e983852a7a82979cc4807b641f4;\r\n        fee = 0.25 * 10 ** 18; // 0.1 LINK (Varies by network)\r\n    }\r\n\r\n    function safeMint(address to, string memory uri) public returns(uint256){\r\n        uint256 tokenId = _tokenIdCounter.current();\r\n        _tokenIdCounter.increment();\r\n        _safeMint(to, tokenId);\r\n        _setTokenURI(tokenId, uri);\r\n        return tokenId;\r\n    }\r\n\r\n    // The following functions are overrides required by Solidity.\r\n\r\n    function _beforeTokenTransfer(address from, address to, uint256 tokenId)\r\n        internal\r\n        override(ERC721, ERC721Enumerable)\r\n    {\r\n        super._beforeTokenTransfer(from, to, tokenId);\r\n    }\r\n\r\n    function _burn(uint256 tokenId) internal override(ERC721, ERC721URIStorage) {\r\n        super._burn(tokenId);\r\n    }\r\n\r\n    function tokenURI(uint256 tokenId)\r\n        public\r\n        view\r\n        override(ERC721, ERC721URIStorage)\r\n        returns (string memory)\r\n    {\r\n        return super.tokenURI(tokenId);\r\n    }\r\n\r\n    function supportsInterface(bytes4 interfaceId)\r\n        public\r\n        view\r\n        override(ERC721, ERC721Enumerable)\r\n        returns (bool)\r\n    {\r\n        return super.supportsInterface(interfaceId);\r\n    }\r\n\r\n    function createCard(string memory tURI) \r\n        public {\r\n        uint256 tokenId = safeMint(msg.sender, tURI);\r\n        bytes32 requestId = getRandomNumber();\r\n        requestIdToTokenId[requestId] = tokenId;\r\n    }\r\n\r\n    function getRandomNumber() public returns (bytes32 requestId) {\r\n        require(LINK.balanceOf(address(this)) >= fee, \"Not enough LINK - fill contract with faucet\");\r\n        return requestRandomness(keyHash, fee);\r\n    }\r\n\r\n    /**\r\n     * Callback function used by VRF Coordinator\r\n     */\r\n    function fulfillRandomness(bytes32 requestId, uint256 randomness) internal override {\r\n        tokenIdToAbility[requestIdToTokenId[requestId]] = randomness;\r\n        randomResult = randomness;\r\n    }\r\n\r\n}",
  "sourcePath": "C:\\Users\\cooky\\Desktop\\project\\nft-marketplace-starter-kit\\src\\contracts\\Card.sol",
  "compiler": {
    "name": "solc",
    "version": "0.8.13+commit.abaa5c0e.Emscripten.clang"
  },
  "schemaVersion": "3.4.7",
  "updatedAt": "2022-05-03T00:02:44.972Z",
  "networkType": "ethereum",
  "devdoc": {
    "kind": "dev",
    "methods": {
      "approve(address,uint256)": {
        "details": "See {IERC721-approve}."
      },
      "balanceOf(address)": {
        "details": "See {IERC721-balanceOf}."
      },
      "getApproved(uint256)": {
        "details": "See {IERC721-getApproved}."
      },
      "isApprovedForAll(address,address)": {
        "details": "See {IERC721-isApprovedForAll}."
      },
      "name()": {
        "details": "See {IERC721Metadata-name}."
      },
      "owner()": {
        "details": "Returns the address of the current owner."
      },
      "ownerOf(uint256)": {
        "details": "See {IERC721-ownerOf}."
      },
      "renounceOwnership()": {
        "details": "Leaves the contract without owner. It will not be possible to call `onlyOwner` functions anymore. Can only be called by the current owner. NOTE: Renouncing ownership will leave the contract without an owner, thereby removing any functionality that is only available to the owner."
      },
      "safeTransferFrom(address,address,uint256)": {
        "details": "See {IERC721-safeTransferFrom}."
      },
      "safeTransferFrom(address,address,uint256,bytes)": {
        "details": "See {IERC721-safeTransferFrom}."
      },
      "setApprovalForAll(address,bool)": {
        "details": "See {IERC721-setApprovalForAll}."
      },
      "symbol()": {
        "details": "See {IERC721Metadata-symbol}."
      },
      "tokenByIndex(uint256)": {
        "details": "See {IERC721Enumerable-tokenByIndex}."
      },
      "tokenOfOwnerByIndex(address,uint256)": {
        "details": "See {IERC721Enumerable-tokenOfOwnerByIndex}."
      },
      "totalSupply()": {
        "details": "See {IERC721Enumerable-totalSupply}."
      },
      "transferFrom(address,address,uint256)": {
        "details": "See {IERC721-transferFrom}."
      },
      "transferOwnership(address)": {
        "details": "Transfers ownership of the contract to a new account (`newOwner`). Can only be called by the current owner."
      }
    },
    "version": 1
  },
  "userdoc": {
    "kind": "user",
    "methods": {},
    "version": 1
  }
}